8=FIX.4.4|9=0000095|35=A|49=sjames8888@gmail_com|56=FIXSIMDEMO|34=1|57=|52=20241013-14:03:55.006|98=0|108=30|141=Y|10=000|
8=FIX.4.4|9=95|35=0|34=1|49=FIXSIMDEMO|52=20241013-14:04:31.878|56=sjames8888@gmail_com|112=0.824042533442398|10=088|
8=FIX.4.4|9=0000111|35=0|49=sjames8888@gmail_com|56=FIXSIMDEMO|34=2|57=|52=20241013-14:04:32.430|112=heartbeat-10/13/2024 14:04:32|10=248|
8=FIX.4.4|9=0000111|35=0|49=sjames8888@gmail_com|56=FIXSIMDEMO|34=3|57=|52=20241013-14:05:02.038|112=heartbeat-10/13/2024 14:05:02|10=249|
8=FIX.4.4|9=0000111|35=0|49=sjames8888@gmail_com|56=FIXSIMDEMO|34=4|57=|52=20241013-14:05:32.041|112=heartbeat-10/13/2024 14:05:32|10=250|
8=FIX.4.4|9=0000111|35=0|49=sjames8888@gmail_com|56=FIXSIMDEMO|34=5|57=|52=20241013-14:06:02.041|112=heartbeat-10/13/2024 14:06:02|10=247|
8=FIX.4.4|9=151|35=6|34=2|49=FIXSIMDEMO|52=20241013-14:06:17.412|56=sjames8888@gmail_com|15=GBP|22=5|23=566638644251319700000|27=100|28=N|44=40|48=VOD.L|54=1|55=VOD.L|10=156|
8=FIX.4.4|9=0000111|35=0|49=sjames8888@gmail_com|56=FIXSIMDEMO|34=6|57=|52=20241013-14:06:32.037|112=heartbeat-10/13/2024 14:06:32|10=003|
8=FIX.4.4|9=0000111|35=0|49=sjames8888@gmail_com|56=FIXSIMDEMO|34=7|57=|52=20241013-14:07:02.042|112=heartbeat-10/13/2024 14:07:02|10=252|
8=FIX.4.4|9=0000111|35=0|49=sjames8888@gmail_com|56=FIXSIMDEMO|34=8|57=|52=20241013-14:07:32.029|112=heartbeat-10/13/2024 14:07:32|10=008|
8=FIX.4.4|9=95|35=1|34=3|49=FIXSIMDEMO|52=20241013-14:07:35.444|56=sjames8888@gmail_com|112=0.349266975815067|10=104|
8=FIX.4.4|9=0000099|35=0|49=sjames8888@gmail_com|56=FIXSIMDEMO|34=9|57=|52=20241013-14:07:35.930|112=0.349266975815067|10=011|
8=FIX.4.4|9=0000112|35=0|49=sjames8888@gmail_com|56=FIXSIMDEMO|34=10|57=|52=20241013-14:08:05.043|112=heartbeat-10/13/2024 14:08:05|10=048|
8=FIX.4.4|9=141|35=V|34=4|49=FIXSIMDEMO|52=20241013-14:08:12.728|56=sjames8888@gmail_com|262=VOD.L|263=1|264=1|146=1|55=VOD.L|167=CS|267=3|269=0|269=1|269=2|10=128|
8=FIX.4.4|9=0000112|35=0|49=sjames8888@gmail_com|56=FIXSIMDEMO|34=11|57=|52=20241013-14:08:35.030|112=heartbeat-10/13/2024 14:08:35|10=051|
8=FIX.4.4|9=0000112|35=0|49=sjames8888@gmail_com|56=FIXSIMDEMO|34=12|57=|52=20241013-14:09:05.043|112=heartbeat-10/13/2024 14:09:05|10=052|
8=FIX.4.4|9=0000112|35=0|49=sjames8888@gmail_com|56=FIXSIMDEMO|34=13|57=|52=20241013-14:09:35.037|112=heartbeat-10/13/2024 14:09:35|10=062|
8=FIX.4.4|9=193|35=D|34=5|49=FIXSIMDEMO|52=20241013-14:09:45.126|56=sjames8888@gmail_com|11=567638644253361428000|15=GBP|21=2|22=5|38=100|40=2|44=100|48=VOD.L|54=1|55=VOD.L|59=0|60=20241013-14:09:45.126|388=1|10=091|
8=FIX.4.4|9=0000112|35=0|49=sjames8888@gmail_com|56=FIXSIMDEMO|34=14|57=|52=20241013-14:10:05.041|112=heartbeat-10/13/2024 14:10:05|10=036|
8=FIX.4.4|9=0000112|35=0|49=sjames8888@gmail_com|56=FIXSIMDEMO|34=15|57=|52=20241013-14:10:35.043|112=heartbeat-10/13/2024 14:10:35|10=045|
8=FIX.4.4|9=0000112|35=0|49=sjames8888@gmail_com|56=FIXSIMDEMO|34=16|57=|52=20241013-14:11:05.038|112=heartbeat-10/13/2024 14:11:05|10=046|
8=FIX.4.4|9=0000112|35=0|49=sjames8888@gmail_com|56=FIXSIMDEMO|34=17|57=|52=20241013-14:11:35.031|112=heartbeat-10/13/2024 14:11:35|10=046|
8=FIX.4.4|9=0000112|35=0|49=sjames8888@gmail_com|56=FIXSIMDEMO|34=18|57=|52=20241013-14:12:05.041|112=heartbeat-10/13/2024 14:12:05|10=044|
8=FIX.4.4|9=0000112|35=0|49=sjames8888@gmail_com|56=FIXSIMDEMO|34=19|57=|52=20241013-14:12:35.043|112=heartbeat-10/13/2024 14:12:35|10=053|
8=FIX.4.4|9=0000112|35=0|49=sjames8888@gmail_com|56=FIXSIMDEMO|34=20|57=|52=20241013-14:13:05.028|112=heartbeat-10/13/2024 14:13:05|10=044|
8=FIX.4.4|9=0000112|35=0|49=sjames8888@gmail_com|56=FIXSIMDEMO|34=21|57=|52=20241013-14:13:35.029|112=heartbeat-10/13/2024 14:13:35|10=052|
8=FIX.4.4|9=0000112|35=0|49=sjames8888@gmail_com|56=FIXSIMDEMO|34=22|57=|52=20241013-14:14:05.041|112=heartbeat-10/13/2024 14:14:05|10=043|
8=FIX.4.4|9=0000112|35=0|49=sjames8888@gmail_com|56=FIXSIMDEMO|34=23|57=|52=20241013-14:14:35.028|112=heartbeat-10/13/2024 14:14:35|10=055|
8=FIX.4.4|9=261|35=8|34=6|49=FIXSIMDEMO|52=20241013-14:15:00.746|56=sjames8888@gmail_com|6=100|14=100|15=GBP|17=41638644256253512000|18=VOD.L|21=2|22=5|31=100|32=100|37=638644257007460000|38=100|39=2|40=2|44=100|48=VOD.L|54=1|55=VOD.L|59=0|60=20241013-14:15:00.746|150=2|151=0|10=207|
8=FIX.4.4|9=0000112|35=0|49=sjames8888@gmail_com|56=FIXSIMDEMO|34=24|57=|52=20241013-14:15:05.030|112=heartbeat-10/13/2024 14:15:05|10=045|
8=FIX.4.4|9=0000112|35=0|49=sjames8888@gmail_com|56=FIXSIMDEMO|34=25|57=|52=20241013-14:15:35.034|112=heartbeat-10/13/2024 14:15:35|10=056|
8=FIX.4.4|9=0000112|35=0|49=sjames8888@gmail_com|56=FIXSIMDEMO|34=26|57=|52=20241013-14:16:05.033|112=heartbeat-10/13/2024 14:16:05|10=052|
8=FIX.4.4|9=119|35=R|34=7|49=FIXSIMDEMO|52=20241013-14:16:23.036|56=sjames8888@gmail_com|131=569638644257643472000|146=1|55=VOD.L|54=1|10=113|
8=FIX.4.4|9=0000112|35=0|49=sjames8888@gmail_com|56=FIXSIMDEMO|34=27|57=|52=20241013-14:16:35.037|112=heartbeat-10/13/2024 14:16:35|10=063|
8=FIX.4.4|9=0000112|35=0|49=sjames8888@gmail_com|56=FIXSIMDEMO|34=28|57=|52=20241013-14:17:05.033|112=heartbeat-10/13/2024 14:17:05|10=056|
8=FIX.4.4|9=0000112|35=0|49=sjames8888@gmail_com|56=FIXSIMDEMO|34=29|57=|52=20241013-14:17:35.038|112=heartbeat-10/13/2024 14:17:35|10=068|
8=FIX.4.4|9=0000112|35=0|49=sjames8888@gmail_com|56=FIXSIMDEMO|34=30|57=|52=20241013-14:18:05.037|112=heartbeat-10/13/2024 14:18:05|10=055|
8=FIX.4.4|9=0000112|35=0|49=sjames8888@gmail_com|56=FIXSIMDEMO|34=31|57=|52=20241013-14:18:35.029|112=heartbeat-10/13/2024 14:18:35|10=063|
8=FIX.4.4|9=0000112|35=0|49=sjames8888@gmail_com|56=FIXSIMDEMO|34=32|57=|52=20241013-14:19:05.040|112=heartbeat-10/13/2024 14:19:05|10=053|
8=FIX.4.4|9=0000112|35=0|49=sjames8888@gmail_com|56=FIXSIMDEMO|34=33|57=|52=20241013-14:19:35.029|112=heartbeat-10/13/2024 14:19:35|10=067|
8=FIX.4.4|9=0000112|35=0|49=sjames8888@gmail_com|56=FIXSIMDEMO|34=34|57=|52=20241013-14:20:05.031|112=heartbeat-10/13/2024 14:20:05|10=039|
8=FIX.4.4|9=0000112|35=0|49=sjames8888@gmail_com|56=FIXSIMDEMO|34=35|57=|52=20241013-14:20:35.029|112=heartbeat-10/13/2024 14:20:35|10=053|
8=FIX.4.4|9=0000112|35=0|49=sjames8888@gmail_com|56=FIXSIMDEMO|34=36|57=|52=20241013-14:21:05.036|112=heartbeat-10/13/2024 14:21:05|10=048|
8=FIX.4.4|9=0000112|35=0|49=sjames8888@gmail_com|56=FIXSIMDEMO|34=37|57=|52=20241013-14:21:35.043|112=heartbeat-10/13/2024 14:21:35|10=053|
8=FIX.4.4|9=0000095|35=A|49=sjames8888@gmail_com|56=FIXSIMDEMO|34=1|57=|52=20241013-14:31:31.938|98=0|108=30|141=Y|10=009|
8=FIX.4.4|9=96|35=0|34=8|49=FIXSIMDEMO|52=20241013-14:31:36.182|56=sjames8888@gmail_com|112=0.0534090264949058|10=144|
