8=FIX.4.4|9=0000117|35=A|49=init-comp|56=accept-comp|34=1|57=fix|52=20221003-23:10:22.271|98=0|108=30|141=Y|553=js-client|554=pwd-client|10=014|
8=FIX.4.4|9=0000117|35=A|49=accept-comp|56=init-comp|34=1|57=fix|52=20221003-23:10:22.288|98=0|108=30|141=Y|553=js-server|554=pwd-server|10=070|
8=FIX.4.4|9=0000154|35=AD|49=init-comp|56=accept-comp|34=2|57=fix|52=20221003-23:10:22.297|568=all-trades|569=0|263=1|580=2|60=20221003-23:10:22.296|60=20221004-23:10:22.296|10=099|
8=FIX.4.4|9=0000104|35=AQ|49=accept-comp|56=init-comp|34=2|57=fix|52=20221003-23:10:22.303|568=all-trades|569=0|749=0|750=0|10=211|
8=FIX.4.4|9=0000194|35=AE|49=accept-comp|56=init-comp|34=3|57=fix|52=20221003-23:10:22.305|571=100000|487=0|856=0|828=0|17=600000|39=2|570=N|55=Gold|48=Gold.INC|32=156|31=65.68|75=20221004|60=20221003-23:10:22.304|10=026|
8=FIX.4.4|9=0000202|35=AE|49=accept-comp|56=init-comp|34=4|57=fix|52=20221003-23:10:22.306|571=100001|487=0|856=0|828=0|17=600001|39=2|570=N|55=Platinum|48=Platinum.INC|32=139|31=28.05|75=20221004|60=20221003-23:10:22.305|10=148|
8=FIX.4.4|9=0000202|35=AE|49=accept-comp|56=init-comp|34=5|57=fix|52=20221003-23:10:22.307|571=100002|487=0|856=0|828=0|17=600002|39=2|570=N|55=Platinum|48=Platinum.INC|32=170|31=99.18|75=20221004|60=20221003-23:10:22.305|10=159|
8=FIX.4.4|9=0000194|35=AE|49=accept-comp|56=init-comp|34=6|57=fix|52=20221003-23:10:22.308|571=100003|487=0|856=0|828=0|17=600003|39=2|570=N|55=Gold|48=Gold.INC|32=127|31=13.31|75=20221004|60=20221003-23:10:22.305|10=020|
8=FIX.4.4|9=0000203|35=AE|49=accept-comp|56=init-comp|34=7|57=fix|52=20221003-23:10:22.308|571=100004|487=0|856=0|828=0|17=600004|39=2|570=N|55=Magnesium|48=Magnesium.INC|32=172|31=7.51|75=20221004|60=20221003-23:10:22.305|10=035|
8=FIX.4.4|9=0000104|35=AQ|49=accept-comp|56=init-comp|34=8|57=fix|52=20221003-23:10:22.310|568=all-trades|569=0|749=0|750=1|10=216|
8=FIX.4.4|9=0000198|35=AE|49=accept-comp|56=init-comp|34=9|57=fix|52=20221003-23:10:37.332|571=100005|487=0|856=0|828=0|17=600005|39=2|570=N|55=Silver|48=Silver.INC|32=139|31=96.63|75=20221004|60=20221003-23:10:37.332|10=025|
8=FIX.4.4|9=0000194|35=AE|49=accept-comp|56=init-comp|34=10|57=fix|52=20221003-23:10:42.341|571=100006|487=0|856=0|828=0|17=600006|39=2|570=N|55=Gold|48=Gold.INC|32=171|31=7.79|75=20221004|60=20221003-23:10:42.340|10=035|
8=FIX.4.4|9=0000104|35=0|49=init-comp|56=accept-comp|34=3|57=fix|52=20221003-23:10:52.381|112=Mon, 03 Oct 2022 23:10:52 GMT|10=035|
8=FIX.4.4|9=0000075|35=5|49=init-comp|56=accept-comp|34=4|57=fix|52=20221003-23:10:54.315|58=5|10=111|
8=FIX.4.4|9=0000076|35=5|49=accept-comp|56=init-comp|34=11|57=fix|52=20221003-23:10:54.322|58=5|10=156|
