8=FIX.4.4|9=0000104|35=0|49=init-comp|56=accept-comp|34=2|57=fix|52=20230101-14:14:20.930|112=Sun, 01 Jan 2023 14:14:20 GMT|10=029|