8=FIX.4.2|9=154|35=D|34=578|49=LEH_LZJ02|52=20100302-22:50:34|56=CCG|115=LZJ|11=NF 0040/03022010|54=1|38=1000|55=IOC|40=2|44=49.38|59=0|1=ABC123ZYX|21=1|207=N|47=A|111=0|10=121|